{
  "_format": "hh-sol-artifact-1",
  "contractName": "NFTMarketplace",
  "sourceName": "contracts/NFTMarket.sol",
  "abi": [
    {
      "inputs": [],
      "stateMutability": "nonpayable",
      "type": "constructor"
    },
    {
      "anonymous": false,
      "inputs": [
        {
          "indexed": true,
          "internalType": "address",
          "name": "owner",
          "type": "address"
        },
        {
          "indexed": true,
          "internalType": "address",
          "name": "approved",
          "type": "address"
        },
        {
          "indexed": true,
          "internalType": "uint256",
          "name": "tokenId",
          "type": "uint256"
        }
      ],
      "name": "Approval",
      "type": "event"
    },
    {
      "anonymous": false,
      "inputs": [
        {
          "indexed": true,
          "internalType": "address",
          "name": "owner",
          "type": "address"
        },
        {
          "indexed": true,
          "internalType": "address",
          "name": "operator",
          "type": "address"
        },
        {
          "indexed": false,
          "internalType": "bool",
          "name": "approved",
          "type": "bool"
        }
      ],
      "name": "ApprovalForAll",
      "type": "event"
    },
    {
      "anonymous": false,
      "inputs": [
        {
          "indexed": true,
          "internalType": "uint256",
          "name": "tokenId",
          "type": "uint256"
        },
        {
          "indexed": false,
          "internalType": "address",
          "name": "seller",
          "type": "address"
        },
        {
          "indexed": false,
          "internalType": "address",
          "name": "owner",
          "type": "address"
        },
        {
          "indexed": false,
          "internalType": "uint256",
          "name": "price",
          "type": "uint256"
        },
        {
          "indexed": false,
          "internalType": "bool",
          "name": "sold",
          "type": "bool"
        }
      ],
      "name": "MarketItemCreated",
      "type": "event"
    },
    {
      "anonymous": false,
      "inputs": [
        {
          "indexed": true,
          "internalType": "address",
          "name": "from",
          "type": "address"
        },
        {
          "indexed": true,
          "internalType": "address",
          "name": "to",
          "type": "address"
        },
        {
          "indexed": true,
          "internalType": "uint256",
          "name": "tokenId",
          "type": "uint256"
        }
      ],
      "name": "Transfer",
      "type": "event"
    },
    {
      "inputs": [
        {
          "internalType": "address",
          "name": "to",
          "type": "address"
        },
        {
          "internalType": "uint256",
          "name": "tokenId",
          "type": "uint256"
        }
      ],
      "name": "approve",
      "outputs": [],
      "stateMutability": "nonpayable",
      "type": "function"
    },
    {
      "inputs": [
        {
          "internalType": "address",
          "name": "owner",
          "type": "address"
        }
      ],
      "name": "balanceOf",
      "outputs": [
        {
          "internalType": "uint256",
          "name": "",
          "type": "uint256"
        }
      ],
      "stateMutability": "view",
      "type": "function"
    },
    {
      "inputs": [
        {
          "internalType": "uint256",
          "name": "tokenId",
          "type": "uint256"
        }
      ],
      "name": "cancelItemListing",
      "outputs": [],
      "stateMutability": "nonpayable",
      "type": "function"
    },
    {
      "inputs": [
        {
          "internalType": "uint256",
          "name": "tokenId",
          "type": "uint256"
        }
      ],
      "name": "createMarketSale",
      "outputs": [],
      "stateMutability": "payable",
      "type": "function"
    },
    {
      "inputs": [
        {
          "internalType": "string",
          "name": "tokenURI",
          "type": "string"
        },
        {
          "internalType": "uint256",
          "name": "price",
          "type": "uint256"
        }
      ],
      "name": "createToken",
      "outputs": [
        {
          "internalType": "uint256",
          "name": "",
          "type": "uint256"
        }
      ],
      "stateMutability": "payable",
      "type": "function"
    },
    {
      "inputs": [],
      "name": "fetchItemsListed",
      "outputs": [
        {
          "components": [
            {
              "internalType": "uint256",
              "name": "tokenId",
              "type": "uint256"
            },
            {
              "internalType": "address payable",
              "name": "seller",
              "type": "address"
            },
            {
              "internalType": "address payable",
              "name": "owner",
              "type": "address"
            },
            {
              "internalType": "uint256",
              "name": "price",
              "type": "uint256"
            },
            {
              "internalType": "bool",
              "name": "sold",
              "type": "bool"
            }
          ],
          "internalType": "struct NFTMarketplace.MarketItem[]",
          "name": "",
          "type": "tuple[]"
        }
      ],
      "stateMutability": "view",
      "type": "function"
    },
    {
      "inputs": [],
      "name": "fetchMarketItems",
      "outputs": [
        {
          "components": [
            {
              "internalType": "uint256",
              "name": "tokenId",
              "type": "uint256"
            },
            {
              "internalType": "address payable",
              "name": "seller",
              "type": "address"
            },
            {
              "internalType": "address payable",
              "name": "owner",
              "type": "address"
            },
            {
              "internalType": "uint256",
              "name": "price",
              "type": "uint256"
            },
            {
              "internalType": "bool",
              "name": "sold",
              "type": "bool"
            }
          ],
          "internalType": "struct NFTMarketplace.MarketItem[]",
          "name": "",
          "type": "tuple[]"
        }
      ],
      "stateMutability": "view",
      "type": "function"
    },
    {
      "inputs": [],
      "name": "fetchMyNfts",
      "outputs": [
        {
          "components": [
            {
              "internalType": "uint256",
              "name": "tokenId",
              "type": "uint256"
            },
            {
              "internalType": "address payable",
              "name": "seller",
              "type": "address"
            },
            {
              "internalType": "address payable",
              "name": "owner",
              "type": "address"
            },
            {
              "internalType": "uint256",
              "name": "price",
              "type": "uint256"
            },
            {
              "internalType": "bool",
              "name": "sold",
              "type": "bool"
            }
          ],
          "internalType": "struct NFTMarketplace.MarketItem[]",
          "name": "",
          "type": "tuple[]"
        }
      ],
      "stateMutability": "view",
      "type": "function"
    },
    {
      "inputs": [
        {
          "internalType": "uint256",
          "name": "tokenId",
          "type": "uint256"
        }
      ],
      "name": "getApproved",
      "outputs": [
        {
          "internalType": "address",
          "name": "",
          "type": "address"
        }
      ],
      "stateMutability": "view",
      "type": "function"
    },
    {
      "inputs": [],
      "name": "getListingPrice",
      "outputs": [
        {
          "internalType": "uint256",
          "name": "",
          "type": "uint256"
        }
      ],
      "stateMutability": "view",
      "type": "function"
    },
    {
      "inputs": [
        {
          "internalType": "address",
          "name": "owner",
          "type": "address"
        },
        {
          "internalType": "address",
          "name": "operator",
          "type": "address"
        }
      ],
      "name": "isApprovedForAll",
      "outputs": [
        {
          "internalType": "bool",
          "name": "",
          "type": "bool"
        }
      ],
      "stateMutability": "view",
      "type": "function"
    },
    {
      "inputs": [],
      "name": "name",
      "outputs": [
        {
          "internalType": "string",
          "name": "",
          "type": "string"
        }
      ],
      "stateMutability": "view",
      "type": "function"
    },
    {
      "inputs": [
        {
          "internalType": "uint256",
          "name": "tokenId",
          "type": "uint256"
        }
      ],
      "name": "ownerOf",
      "outputs": [
        {
          "internalType": "address",
          "name": "",
          "type": "address"
        }
      ],
      "stateMutability": "view",
      "type": "function"
    },
    {
      "inputs": [
        {
          "internalType": "uint256",
          "name": "tokenId",
          "type": "uint256"
        },
        {
          "internalType": "uint256",
          "name": "price",
          "type": "uint256"
        }
      ],
      "name": "resellToken",
      "outputs": [],
      "stateMutability": "payable",
      "type": "function"
    },
    {
      "inputs": [
        {
          "internalType": "address",
          "name": "from",
          "type": "address"
        },
        {
          "internalType": "address",
          "name": "to",
          "type": "address"
        },
        {
          "internalType": "uint256",
          "name": "tokenId",
          "type": "uint256"
        }
      ],
      "name": "safeTransferFrom",
      "outputs": [],
      "stateMutability": "nonpayable",
      "type": "function"
    },
    {
      "inputs": [
        {
          "internalType": "address",
          "name": "from",
          "type": "address"
        },
        {
          "internalType": "address",
          "name": "to",
          "type": "address"
        },
        {
          "internalType": "uint256",
          "name": "tokenId",
          "type": "uint256"
        },
        {
          "internalType": "bytes",
          "name": "data",
          "type": "bytes"
        }
      ],
      "name": "safeTransferFrom",
      "outputs": [],
      "stateMutability": "nonpayable",
      "type": "function"
    },
    {
      "inputs": [
        {
          "internalType": "address",
          "name": "operator",
          "type": "address"
        },
        {
          "internalType": "bool",
          "name": "approved",
          "type": "bool"
        }
      ],
      "name": "setApprovalForAll",
      "outputs": [],
      "stateMutability": "nonpayable",
      "type": "function"
    },
    {
      "inputs": [
        {
          "internalType": "bytes4",
          "name": "interfaceId",
          "type": "bytes4"
        }
      ],
      "name": "supportsInterface",
      "outputs": [
        {
          "internalType": "bool",
          "name": "",
          "type": "bool"
        }
      ],
      "stateMutability": "view",
      "type": "function"
    },
    {
      "inputs": [],
      "name": "symbol",
      "outputs": [
        {
          "internalType": "string",
          "name": "",
          "type": "string"
        }
      ],
      "stateMutability": "view",
      "type": "function"
    },
    {
      "inputs": [
        {
          "internalType": "uint256",
          "name": "tokenId",
          "type": "uint256"
        }
      ],
      "name": "tokenURI",
      "outputs": [
        {
          "internalType": "string",
          "name": "",
          "type": "string"
        }
      ],
      "stateMutability": "view",
      "type": "function"
    },
    {
      "inputs": [
        {
          "internalType": "address",
          "name": "from",
          "type": "address"
        },
        {
          "internalType": "address",
          "name": "to",
          "type": "address"
        },
        {
          "internalType": "uint256",
          "name": "tokenId",
          "type": "uint256"
        }
      ],
      "name": "transferFrom",
      "outputs": [],
      "stateMutability": "nonpayable",
      "type": "function"
    },
    {
      "inputs": [
        {
          "internalType": "uint256",
          "name": "_listingPrice",
          "type": "uint256"
        }
      ],
      "name": "updateListingPrice",
      "outputs": [],
      "stateMutability": "payable",
      "type": "function"
    }
  ],
  "bytecode": "0x608060405266038d7ea4c680006009553480156200001c57600080fd5b506040518060400160405280601081526020017f4d657461766572736520546f6b656e73000000000000000000000000000000008152506040518060400160405280600481526020017f4d4554410000000000000000000000000000000000000000000000000000000081525081600090816200009a919062000370565b508060019081620000ac919062000370565b50505033600a60006101000a81548173ffffffffffffffffffffffffffffffffffffffff021916908373ffffffffffffffffffffffffffffffffffffffff16021790555062000457565b600081519050919050565b7f4e487b7100000000000000000000000000000000000000000000000000000000600052604160045260246000fd5b7f4e487b7100000000000000000000000000000000000000000000000000000000600052602260045260246000fd5b600060028204905060018216806200017857607f821691505b6020821081036200018e576200018d62000130565b5b50919050565b60008190508160005260206000209050919050565b60006020601f8301049050919050565b600082821b905092915050565b600060088302620001f87fffffffffffffffffffffffffffffffffffffffffffffffffffffffffffffffff82620001b9565b620002048683620001b9565b95508019841693508086168417925050509392505050565b6000819050919050565b6000819050919050565b6000620002516200024b62000245846200021c565b62000226565b6200021c565b9050919050565b6000819050919050565b6200026d8362000230565b620002856200027c8262000258565b848454620001c6565b825550505050565b600090565b6200029c6200028d565b620002a981848462000262565b505050565b5b81811015620002d157620002c560008262000292565b600181019050620002af565b5050565b601f8211156200032057620002ea8162000194565b620002f584620001a9565b8101602085101562000305578190505b6200031d6200031485620001a9565b830182620002ae565b50505b505050565b600082821c905092915050565b6000620003456000198460080262000325565b1980831691505092915050565b600062000360838362000332565b9150826002028217905092915050565b6200037b82620000f6565b67ffffffffffffffff81111562000397576200039662000101565b5b620003a382546200015f565b620003b0828285620002d5565b600060209050601f831160018114620003e85760008415620003d3578287015190505b620003df858262000352565b8655506200044f565b601f198416620003f88662000194565b60005b828110156200042257848901518255600182019150602085019450602081019050620003fb565b868310156200044257848901516200043e601f89168262000332565b8355505b6001600288020188555050505b505050505050565b6145fc80620004676000396000f3fe6080604052600436106101355760003560e01c80636352211e116100ab578063ae677aa31161006f578063ae677aa31461042d578063b88d4fde14610449578063be9af53614610472578063c87b56dd1461048e578063e219fc75146104cb578063e985e9c5146104e757610135565b80636352211e1461032f57806370a082311461036c57806372b3b620146103a957806395d89b41146103d9578063a22cb4651461040457610135565b8063128ae712116100fd578063128ae7121461023357806312e855851461025e57806323b872dd14610289578063260070d8146102b257806342842e0e146102db57806345f8fa801461030457610135565b806301ffc9a71461013a57806306fdde0314610177578063081812fc146101a2578063095ea7b3146101df5780630f08efe014610208575b600080fd5b34801561014657600080fd5b50610161600480360381019061015c9190612d9c565b610524565b60405161016e9190612de4565b60405180910390f35b34801561018357600080fd5b5061018c610606565b6040516101999190612e8f565b60405180910390f35b3480156101ae57600080fd5b506101c960048036038101906101c49190612ee7565b610698565b6040516101d69190612f55565b60405180910390f35b3480156101eb57600080fd5b5061020660048036038101906102019190612f9c565b6106de565b005b34801561021457600080fd5b5061021d6107f5565b60405161022a9190613132565b60405180910390f35b34801561023f57600080fd5b50610248610a5d565b6040516102559190613132565b60405180910390f35b34801561026a57600080fd5b50610273610d49565b6040516102809190613163565b60405180910390f35b34801561029557600080fd5b506102b060048036038101906102ab919061317e565b610d53565b005b3480156102be57600080fd5b506102d960048036038101906102d49190612ee7565b610db3565b005b3480156102e757600080fd5b5061030260048036038101906102fd919061317e565b61101e565b005b34801561031057600080fd5b5061031961103e565b6040516103269190613132565b60405180910390f35b34801561033b57600080fd5b5061035660048036038101906103519190612ee7565b61132a565b6040516103639190612f55565b60405180910390f35b34801561037857600080fd5b50610393600480360381019061038e91906131d1565b6113b0565b6040516103a09190613163565b60405180910390f35b6103c360048036038101906103be9190613333565b611467565b6040516103d09190613163565b60405180910390f35b3480156103e557600080fd5b506103ee6114a9565b6040516103fb9190612e8f565b60405180910390f35b34801561041057600080fd5b5061042b600480360381019061042691906133bb565b61153b565b005b61044760048036038101906104429190612ee7565b611551565b005b34801561045557600080fd5b50610470600480360381019061046b919061349c565b6115eb565b005b61048c60048036038101906104879190612ee7565b61164d565b005b34801561049a57600080fd5b506104b560048036038101906104b09190612ee7565b61188b565b6040516104c29190612e8f565b60405180910390f35b6104e560048036038101906104e0919061351f565b61199d565b005b3480156104f357600080fd5b5061050e6004803603810190610509919061355f565b611b92565b60405161051b9190612de4565b60405180910390f35b60007f80ac58cd000000000000000000000000000000000000000000000000000000007bffffffffffffffffffffffffffffffffffffffffffffffffffffffff1916827bffffffffffffffffffffffffffffffffffffffffffffffffffffffff191614806105ef57507f5b5e139f000000000000000000000000000000000000000000000000000000007bffffffffffffffffffffffffffffffffffffffffffffffffffffffff1916827bffffffffffffffffffffffffffffffffffffffffffffffffffffffff1916145b806105ff57506105fe82611c26565b5b9050919050565b606060008054610615906135ce565b80601f0160208091040260200160405190810160405280929190818152602001828054610641906135ce565b801561068e5780601f106106635761010080835404028352916020019161068e565b820191906000526020600020905b81548152906001019060200180831161067157829003601f168201915b5050505050905090565b60006106a382611c90565b6004600083815260200190815260200160002060009054906101000a900473ffffffffffffffffffffffffffffffffffffffff169050919050565b60006106e98261132a565b90508073ffffffffffffffffffffffffffffffffffffffff168373ffffffffffffffffffffffffffffffffffffffff1603610759576040517f08c379a000000000000000000000000000000000000000000000000000000000815260040161075090613671565b60405180910390fd5b8073ffffffffffffffffffffffffffffffffffffffff16610778611cdb565b73ffffffffffffffffffffffffffffffffffffffff1614806107a757506107a6816107a1611cdb565b611b92565b5b6107e6576040517f08c379a00000000000000000000000000000000000000000000000000000000081526004016107dd90613703565b60405180910390fd5b6107f08383611ce3565b505050565b606060006108036007611d9c565b905060006108116008611d9c565b61081b6007611d9c565b6108259190613752565b90506000808267ffffffffffffffff81111561084457610843613208565b5b60405190808252806020026020018201604052801561087d57816020015b61086a612cd3565b8152602001906001900390816108625790505b50905060005b84811015610a52573073ffffffffffffffffffffffffffffffffffffffff16600b60006001846108b39190613786565b815260200190815260200160002060020160009054906101000a900473ffffffffffffffffffffffffffffffffffffffff1673ffffffffffffffffffffffffffffffffffffffff1603610a3f57600060018261090f9190613786565b90506000600b60008381526020019081526020016000209050806040518060a0016040529081600082015481526020016001820160009054906101000a900473ffffffffffffffffffffffffffffffffffffffff1673ffffffffffffffffffffffffffffffffffffffff1673ffffffffffffffffffffffffffffffffffffffff1681526020016002820160009054906101000a900473ffffffffffffffffffffffffffffffffffffffff1673ffffffffffffffffffffffffffffffffffffffff1673ffffffffffffffffffffffffffffffffffffffff168152602001600382015481526020016004820160009054906101000a900460ff161515151581525050848681518110610a2257610a216137ba565b5b6020026020010181905250600185610a3a9190613786565b945050505b8080610a4a906137e9565b915050610883565b508094505050505090565b60606000610a6b6007611d9c565b905060008060005b83811015610b13573373ffffffffffffffffffffffffffffffffffffffff16600b6000600184610aa39190613786565b815260200190815260200160002060020160009054906101000a900473ffffffffffffffffffffffffffffffffffffffff1673ffffffffffffffffffffffffffffffffffffffff1603610b0057600183610afd9190613786565b92505b8080610b0b906137e9565b915050610a73565b5060008267ffffffffffffffff811115610b3057610b2f613208565b5b604051908082528060200260200182016040528015610b6957816020015b610b56612cd3565b815260200190600190039081610b4e5790505b50905060005b84811015610d3e573373ffffffffffffffffffffffffffffffffffffffff16600b6000600184610b9f9190613786565b815260200190815260200160002060020160009054906101000a900473ffffffffffffffffffffffffffffffffffffffff1673ffffffffffffffffffffffffffffffffffffffff1603610d2b576000600182610bfb9190613786565b90506000600b60008381526020019081526020016000209050806040518060a0016040529081600082015481526020016001820160009054906101000a900473ffffffffffffffffffffffffffffffffffffffff1673ffffffffffffffffffffffffffffffffffffffff1673ffffffffffffffffffffffffffffffffffffffff1681526020016002820160009054906101000a900473ffffffffffffffffffffffffffffffffffffffff1673ffffffffffffffffffffffffffffffffffffffff1673ffffffffffffffffffffffffffffffffffffffff168152602001600382015481526020016004820160009054906101000a900460ff161515151581525050848681518110610d0e57610d0d6137ba565b5b6020026020010181905250600185610d269190613786565b945050505b8080610d36906137e9565b915050610b6f565b508094505050505090565b6000600954905090565b610d64610d5e611cdb565b82611daa565b610da3576040517f08c379a0000000000000000000000000000000000000000000000000000000008152600401610d9a906138a3565b60405180910390fd5b610dae838383611e3f565b505050565b3373ffffffffffffffffffffffffffffffffffffffff16600b600083815260200190815260200160002060010160009054906101000a900473ffffffffffffffffffffffffffffffffffffffff1673ffffffffffffffffffffffffffffffffffffffff1614610e57576040517f08c379a0000000000000000000000000000000000000000000000000000000008152600401610e4e90613935565b60405180910390fd5b60001515600b600083815260200190815260200160002060040160009054906101000a900460ff16151514610ec1576040517f08c379a0000000000000000000000000000000000000000000000000000000008152600401610eb8906139c7565b60405180910390fd5b33600b600083815260200190815260200160002060020160006101000a81548173ffffffffffffffffffffffffffffffffffffffff021916908373ffffffffffffffffffffffffffffffffffffffff1602179055506000600b600083815260200190815260200160002060010160006101000a81548173ffffffffffffffffffffffffffffffffffffffff021916908373ffffffffffffffffffffffffffffffffffffffff1602179055506001600b600083815260200190815260200160002060040160006101000a81548160ff021916908315150217905550610fa56008612138565b600a60009054906101000a900473ffffffffffffffffffffffffffffffffffffffff1673ffffffffffffffffffffffffffffffffffffffff166108fc6009549081150290604051600060405180830381858888f1935050505015801561100f573d6000803e3d6000fd5b5061101b303383611e3f565b50565b611039838383604051806020016040528060008152506115eb565b505050565b6060600061104c6007611d9c565b905060008060005b838110156110f4573373ffffffffffffffffffffffffffffffffffffffff16600b60006001846110849190613786565b815260200190815260200160002060010160009054906101000a900473ffffffffffffffffffffffffffffffffffffffff1673ffffffffffffffffffffffffffffffffffffffff16036110e1576001836110de9190613786565b92505b80806110ec906137e9565b915050611054565b5060008267ffffffffffffffff81111561111157611110613208565b5b60405190808252806020026020018201604052801561114a57816020015b611137612cd3565b81526020019060019003908161112f5790505b50905060005b8481101561131f573373ffffffffffffffffffffffffffffffffffffffff16600b60006001846111809190613786565b815260200190815260200160002060010160009054906101000a900473ffffffffffffffffffffffffffffffffffffffff1673ffffffffffffffffffffffffffffffffffffffff160361130c5760006001826111dc9190613786565b90506000600b60008381526020019081526020016000209050806040518060a0016040529081600082015481526020016001820160009054906101000a900473ffffffffffffffffffffffffffffffffffffffff1673ffffffffffffffffffffffffffffffffffffffff1673ffffffffffffffffffffffffffffffffffffffff1681526020016002820160009054906101000a900473ffffffffffffffffffffffffffffffffffffffff1673ffffffffffffffffffffffffffffffffffffffff1673ffffffffffffffffffffffffffffffffffffffff168152602001600382015481526020016004820160009054906101000a900460ff1615151515815250508486815181106112ef576112ee6137ba565b5b60200260200101819052506001856113079190613786565b945050505b8080611317906137e9565b915050611150565b508094505050505090565b6000806113368361214e565b9050600073ffffffffffffffffffffffffffffffffffffffff168173ffffffffffffffffffffffffffffffffffffffff16036113a7576040517f08c379a000000000000000000000000000000000000000000000000000000000815260040161139e90613a33565b60405180910390fd5b80915050919050565b60008073ffffffffffffffffffffffffffffffffffffffff168273ffffffffffffffffffffffffffffffffffffffff1603611420576040517f08c379a000000000000000000000000000000000000000000000000000000000815260040161141790613ac5565b60405180910390fd5b600360008373ffffffffffffffffffffffffffffffffffffffff1673ffffffffffffffffffffffffffffffffffffffff168152602001908152602001600020549050919050565b60006114736007612138565b600061147f6007611d9c565b905061148b338261218b565b61149581856123a8565b61149f8184612415565b8091505092915050565b6060600180546114b8906135ce565b80601f01602080910402602001604051908101604052809291908181526020018280546114e4906135ce565b80156115315780601f1061150657610100808354040283529160200191611531565b820191906000526020600020905b81548152906001019060200180831161151457829003601f168201915b5050505050905090565b61154d611546611cdb565b8383612618565b5050565b3373ffffffffffffffffffffffffffffffffffffffff16600a60009054906101000a900473ffffffffffffffffffffffffffffffffffffffff1673ffffffffffffffffffffffffffffffffffffffff16146115e1576040517f08c379a00000000000000000000000000000000000000000000000000000000081526004016115d890613b57565b60405180910390fd5b8060098190555050565b6115fc6115f6611cdb565b83611daa565b61163b576040517f08c379a0000000000000000000000000000000000000000000000000000000008152600401611632906138a3565b60405180910390fd5b61164784848484612784565b50505050565b6000600b60008381526020019081526020016000206003015490506000600b600084815260200190815260200160002060010160009054906101000a900473ffffffffffffffffffffffffffffffffffffffff1690508134146116e5576040517f08c379a00000000000000000000000000000000000000000000000000000000081526004016116dc90613be9565b60405180910390fd5b33600b600085815260200190815260200160002060020160006101000a81548173ffffffffffffffffffffffffffffffffffffffff021916908373ffffffffffffffffffffffffffffffffffffffff1602179055506001600b600085815260200190815260200160002060040160006101000a81548160ff0219169083151502179055506000600b600085815260200190815260200160002060010160006101000a81548173ffffffffffffffffffffffffffffffffffffffff021916908373ffffffffffffffffffffffffffffffffffffffff1602179055506117c96008612138565b6117d4303385611e3f565b600a60009054906101000a900473ffffffffffffffffffffffffffffffffffffffff1673ffffffffffffffffffffffffffffffffffffffff166108fc6009549081150290604051600060405180830381858888f1935050505015801561183e573d6000803e3d6000fd5b508073ffffffffffffffffffffffffffffffffffffffff166108fc349081150290604051600060405180830381858888f19350505050158015611885573d6000803e3d6000fd5b50505050565b606061189682611c90565b60006006600084815260200190815260200160002080546118b6906135ce565b80601f01602080910402602001604051908101604052809291908181526020018280546118e2906135ce565b801561192f5780601f106119045761010080835404028352916020019161192f565b820191906000526020600020905b81548152906001019060200180831161191257829003601f168201915b5050505050905060006119406127e0565b90506000815103611955578192505050611998565b60008251111561198a578082604051602001611972929190613c45565b60405160208183030381529060405292505050611998565b611993846127f7565b925050505b919050565b3373ffffffffffffffffffffffffffffffffffffffff16600b600084815260200190815260200160002060020160009054906101000a900473ffffffffffffffffffffffffffffffffffffffff1673ffffffffffffffffffffffffffffffffffffffff1614611a41576040517f08c379a0000000000000000000000000000000000000000000000000000000008152600401611a3890613cdb565b60405180910390fd5b6009543414611a85576040517f08c379a0000000000000000000000000000000000000000000000000000000008152600401611a7c90613d6d565b60405180910390fd5b6000600b600084815260200190815260200160002060040160006101000a81548160ff02191690831515021790555080600b60008481526020019081526020016000206003018190555033600b600084815260200190815260200160002060010160006101000a81548173ffffffffffffffffffffffffffffffffffffffff021916908373ffffffffffffffffffffffffffffffffffffffff16021790555030600b600084815260200190815260200160002060020160006101000a81548173ffffffffffffffffffffffffffffffffffffffff021916908373ffffffffffffffffffffffffffffffffffffffff160217905550611b83600861285f565b611b8e333084611e3f565b5050565b6000600560008473ffffffffffffffffffffffffffffffffffffffff1673ffffffffffffffffffffffffffffffffffffffff16815260200190815260200160002060008373ffffffffffffffffffffffffffffffffffffffff1673ffffffffffffffffffffffffffffffffffffffff16815260200190815260200160002060009054906101000a900460ff16905092915050565b60007f01ffc9a7000000000000000000000000000000000000000000000000000000007bffffffffffffffffffffffffffffffffffffffffffffffffffffffff1916827bffffffffffffffffffffffffffffffffffffffffffffffffffffffff1916149050919050565b611c99816128bb565b611cd8576040517f08c379a0000000000000000000000000000000000000000000000000000000008152600401611ccf90613a33565b60405180910390fd5b50565b600033905090565b816004600083815260200190815260200160002060006101000a81548173ffffffffffffffffffffffffffffffffffffffff021916908373ffffffffffffffffffffffffffffffffffffffff160217905550808273ffffffffffffffffffffffffffffffffffffffff16611d568361132a565b73ffffffffffffffffffffffffffffffffffffffff167f8c5be1e5ebec7d5bd14f71427d1e84f3dd0314c0f7b2291e5b200ac8c7c3b92560405160405180910390a45050565b600081600001549050919050565b600080611db68361132a565b90508073ffffffffffffffffffffffffffffffffffffffff168473ffffffffffffffffffffffffffffffffffffffff161480611df85750611df78185611b92565b5b80611e3657508373ffffffffffffffffffffffffffffffffffffffff16611e1e84610698565b73ffffffffffffffffffffffffffffffffffffffff16145b91505092915050565b8273ffffffffffffffffffffffffffffffffffffffff16611e5f8261132a565b73ffffffffffffffffffffffffffffffffffffffff1614611eb5576040517f08c379a0000000000000000000000000000000000000000000000000000000008152600401611eac90613dff565b60405180910390fd5b600073ffffffffffffffffffffffffffffffffffffffff168273ffffffffffffffffffffffffffffffffffffffff1603611f24576040517f08c379a0000000000000000000000000000000000000000000000000000000008152600401611f1b90613e91565b60405180910390fd5b611f3183838360016128fc565b8273ffffffffffffffffffffffffffffffffffffffff16611f518261132a565b73ffffffffffffffffffffffffffffffffffffffff1614611fa7576040517f08c379a0000000000000000000000000000000000000000000000000000000008152600401611f9e90613dff565b60405180910390fd5b6004600082815260200190815260200160002060006101000a81549073ffffffffffffffffffffffffffffffffffffffff02191690556001600360008573ffffffffffffffffffffffffffffffffffffffff1673ffffffffffffffffffffffffffffffffffffffff168152602001908152602001600020600082825403925050819055506001600360008473ffffffffffffffffffffffffffffffffffffffff1673ffffffffffffffffffffffffffffffffffffffff16815260200190815260200160002060008282540192505081905550816002600083815260200190815260200160002060006101000a81548173ffffffffffffffffffffffffffffffffffffffff021916908373ffffffffffffffffffffffffffffffffffffffff160217905550808273ffffffffffffffffffffffffffffffffffffffff168473ffffffffffffffffffffffffffffffffffffffff167fddf252ad1be2c89b69c2b068fc378daa952ba7f163c4a11628f55a4df523b3ef60405160405180910390a46121338383836001612902565b505050565b6001816000016000828254019250508190555050565b60006002600083815260200190815260200160002060009054906101000a900473ffffffffffffffffffffffffffffffffffffffff169050919050565b600073ffffffffffffffffffffffffffffffffffffffff168273ffffffffffffffffffffffffffffffffffffffff16036121fa576040517f08c379a00000000000000000000000000000000000000000000000000000000081526004016121f190613efd565b60405180910390fd5b612203816128bb565b15612243576040517f08c379a000000000000000000000000000000000000000000000000000000000815260040161223a90613f69565b60405180910390fd5b6122516000838360016128fc565b61225a816128bb565b1561229a576040517f08c379a000000000000000000000000000000000000000000000000000000000815260040161229190613f69565b60405180910390fd5b6001600360008473ffffffffffffffffffffffffffffffffffffffff1673ffffffffffffffffffffffffffffffffffffffff16815260200190815260200160002060008282540192505081905550816002600083815260200190815260200160002060006101000a81548173ffffffffffffffffffffffffffffffffffffffff021916908373ffffffffffffffffffffffffffffffffffffffff160217905550808273ffffffffffffffffffffffffffffffffffffffff16600073ffffffffffffffffffffffffffffffffffffffff167fddf252ad1be2c89b69c2b068fc378daa952ba7f163c4a11628f55a4df523b3ef60405160405180910390a46123a4600083836001612902565b5050565b6123b1826128bb565b6123f0576040517f08c379a00000000000000000000000000000000000000000000000000000000081526004016123e790613ffb565b60405180910390fd5b8060066000848152602001908152602001600020908161241091906141c7565b505050565b60008111612458576040517f08c379a000000000000000000000000000000000000000000000000000000000815260040161244f906142e5565b60405180910390fd5b600954341461249c576040517f08c379a000000000000000000000000000000000000000000000000000000000815260040161249390613d6d565b60405180910390fd5b6040518060a001604052808381526020013373ffffffffffffffffffffffffffffffffffffffff1681526020013073ffffffffffffffffffffffffffffffffffffffff16815260200182815260200160001515815250600b60008481526020019081526020016000206000820151816000015560208201518160010160006101000a81548173ffffffffffffffffffffffffffffffffffffffff021916908373ffffffffffffffffffffffffffffffffffffffff16021790555060408201518160020160006101000a81548173ffffffffffffffffffffffffffffffffffffffff021916908373ffffffffffffffffffffffffffffffffffffffff1602179055506060820151816003015560808201518160040160006101000a81548160ff0219169083151502179055509050506125d5333084611e3f565b817fb640004f1d14576d0c209e240cad0410e0d8c0c33a09375861fbadae2588a98d333084600060405161260c9493929190614305565b60405180910390a25050565b8173ffffffffffffffffffffffffffffffffffffffff168373ffffffffffffffffffffffffffffffffffffffff1603612686576040517f08c379a000000000000000000000000000000000000000000000000000000000815260040161267d90614396565b60405180910390fd5b80600560008573ffffffffffffffffffffffffffffffffffffffff1673ffffffffffffffffffffffffffffffffffffffff16815260200190815260200160002060008473ffffffffffffffffffffffffffffffffffffffff1673ffffffffffffffffffffffffffffffffffffffff16815260200190815260200160002060006101000a81548160ff0219169083151502179055508173ffffffffffffffffffffffffffffffffffffffff168373ffffffffffffffffffffffffffffffffffffffff167f17307eab39ab6107e8899845ad3d59bd9653f200f220920489ca2b5937696c31836040516127779190612de4565b60405180910390a3505050565b61278f848484611e3f565b61279b84848484612908565b6127da576040517f08c379a00000000000000000000000000000000000000000000000000000000081526004016127d190614428565b60405180910390fd5b50505050565b606060405180602001604052806000815250905090565b606061280282611c90565b600061280c6127e0565b9050600081511161282c5760405180602001604052806000815250612857565b8061283684612a8f565b604051602001612847929190613c45565b6040516020818303038152906040525b915050919050565b600081600001549050600081116128ab576040517f08c379a00000000000000000000000000000000000000000000000000000000081526004016128a290614494565b60405180910390fd5b6001810382600001819055505050565b60008073ffffffffffffffffffffffffffffffffffffffff166128dd8361214e565b73ffffffffffffffffffffffffffffffffffffffff1614159050919050565b50505050565b50505050565b60006129298473ffffffffffffffffffffffffffffffffffffffff16612b5d565b15612a82578373ffffffffffffffffffffffffffffffffffffffff1663150b7a02612952611cdb565b8786866040518563ffffffff1660e01b81526004016129749493929190614509565b6020604051808303816000875af19250505080156129b057506040513d601f19601f820116820180604052508101906129ad919061456a565b60015b612a32573d80600081146129e0576040519150601f19603f3d011682016040523d82523d6000602084013e6129e5565b606091505b506000815103612a2a576040517f08c379a0000000000000000000000000000000000000000000000000000000008152600401612a2190614428565b60405180910390fd5b805181602001fd5b63150b7a0260e01b7bffffffffffffffffffffffffffffffffffffffffffffffffffffffff1916817bffffffffffffffffffffffffffffffffffffffffffffffffffffffff191614915050612a87565b600190505b949350505050565b606060006001612a9e84612b80565b01905060008167ffffffffffffffff811115612abd57612abc613208565b5b6040519080825280601f01601f191660200182016040528015612aef5781602001600182028036833780820191505090505b509050600082602001820190505b600115612b52578080600190039150507f3031323334353637383961626364656600000000000000000000000000000000600a86061a8153600a8581612b4657612b45614597565b5b04945060008503612afd575b819350505050919050565b6000808273ffffffffffffffffffffffffffffffffffffffff163b119050919050565b600080600090507a184f03e93ff9f4daa797ed6e38ed64bf6a1f0100000000000000008310612bde577a184f03e93ff9f4daa797ed6e38ed64bf6a1f0100000000000000008381612bd457612bd3614597565b5b0492506040810190505b6d04ee2d6d415b85acef81000000008310612c1b576d04ee2d6d415b85acef81000000008381612c1157612c10614597565b5b0492506020810190505b662386f26fc100008310612c4a57662386f26fc100008381612c4057612c3f614597565b5b0492506010810190505b6305f5e1008310612c73576305f5e1008381612c6957612c68614597565b5b0492506008810190505b6127108310612c98576127108381612c8e57612c8d614597565b5b0492506004810190505b60648310612cbb5760648381612cb157612cb0614597565b5b0492506002810190505b600a8310612cca576001810190505b80915050919050565b6040518060a0016040528060008152602001600073ffffffffffffffffffffffffffffffffffffffff168152602001600073ffffffffffffffffffffffffffffffffffffffff168152602001600081526020016000151581525090565b6000604051905090565b600080fd5b600080fd5b60007fffffffff0000000000000000000000000000000000000000000000000000000082169050919050565b612d7981612d44565b8114612d8457600080fd5b50565b600081359050612d9681612d70565b92915050565b600060208284031215612db257612db1612d3a565b5b6000612dc084828501612d87565b91505092915050565b60008115159050919050565b612dde81612dc9565b82525050565b6000602082019050612df96000830184612dd5565b92915050565b600081519050919050565b600082825260208201905092915050565b60005b83811015612e39578082015181840152602081019050612e1e565b60008484015250505050565b6000601f19601f8301169050919050565b6000612e6182612dff565b612e6b8185612e0a565b9350612e7b818560208601612e1b565b612e8481612e45565b840191505092915050565b60006020820190508181036000830152612ea98184612e56565b905092915050565b6000819050919050565b612ec481612eb1565b8114612ecf57600080fd5b50565b600081359050612ee181612ebb565b92915050565b600060208284031215612efd57612efc612d3a565b5b6000612f0b84828501612ed2565b91505092915050565b600073ffffffffffffffffffffffffffffffffffffffff82169050919050565b6000612f3f82612f14565b9050919050565b612f4f81612f34565b82525050565b6000602082019050612f6a6000830184612f46565b92915050565b612f7981612f34565b8114612f8457600080fd5b50565b600081359050612f9681612f70565b92915050565b60008060408385031215612fb357612fb2612d3a565b5b6000612fc185828601612f87565b9250506020612fd285828601612ed2565b9150509250929050565b600081519050919050565b600082825260208201905092915050565b6000819050602082019050919050565b61301181612eb1565b82525050565b600061302282612f14565b9050919050565b61303281613017565b82525050565b61304181612dc9565b82525050565b60a08201600082015161305d6000850182613008565b5060208201516130706020850182613029565b5060408201516130836040850182613029565b5060608201516130966060850182613008565b5060808201516130a96080850182613038565b50505050565b60006130bb8383613047565b60a08301905092915050565b6000602082019050919050565b60006130df82612fdc565b6130e98185612fe7565b93506130f483612ff8565b8060005b8381101561312557815161310c88826130af565b9750613117836130c7565b9250506001810190506130f8565b5085935050505092915050565b6000602082019050818103600083015261314c81846130d4565b905092915050565b61315d81612eb1565b82525050565b60006020820190506131786000830184613154565b92915050565b60008060006060848603121561319757613196612d3a565b5b60006131a586828701612f87565b93505060206131b686828701612f87565b92505060406131c786828701612ed2565b9150509250925092565b6000602082840312156131e7576131e6612d3a565b5b60006131f584828501612f87565b91505092915050565b600080fd5b600080fd5b7f4e487b7100000000000000000000000000000000000000000000000000000000600052604160045260246000fd5b61324082612e45565b810181811067ffffffffffffffff8211171561325f5761325e613208565b5b80604052505050565b6000613272612d30565b905061327e8282613237565b919050565b600067ffffffffffffffff82111561329e5761329d613208565b5b6132a782612e45565b9050602081019050919050565b82818337600083830152505050565b60006132d66132d184613283565b613268565b9050828152602081018484840111156132f2576132f1613203565b5b6132fd8482856132b4565b509392505050565b600082601f83011261331a576133196131fe565b5b813561332a8482602086016132c3565b91505092915050565b6000806040838503121561334a57613349612d3a565b5b600083013567ffffffffffffffff81111561336857613367612d3f565b5b61337485828601613305565b925050602061338585828601612ed2565b9150509250929050565b61339881612dc9565b81146133a357600080fd5b50565b6000813590506133b58161338f565b92915050565b600080604083850312156133d2576133d1612d3a565b5b60006133e085828601612f87565b92505060206133f1858286016133a6565b9150509250929050565b600067ffffffffffffffff82111561341657613415613208565b5b61341f82612e45565b9050602081019050919050565b600061343f61343a846133fb565b613268565b90508281526020810184848401111561345b5761345a613203565b5b6134668482856132b4565b509392505050565b600082601f830112613483576134826131fe565b5b813561349384826020860161342c565b91505092915050565b600080600080608085870312156134b6576134b5612d3a565b5b60006134c487828801612f87565b94505060206134d587828801612f87565b93505060406134e687828801612ed2565b925050606085013567ffffffffffffffff81111561350757613506612d3f565b5b6135138782880161346e565b91505092959194509250565b6000806040838503121561353657613535612d3a565b5b600061354485828601612ed2565b925050602061355585828601612ed2565b9150509250929050565b6000806040838503121561357657613575612d3a565b5b600061358485828601612f87565b925050602061359585828601612f87565b9150509250929050565b7f4e487b7100000000000000000000000000000000000000000000000000000000600052602260045260246000fd5b600060028204905060018216806135e657607f821691505b6020821081036135f9576135f861359f565b5b50919050565b7f4552433732313a20617070726f76616c20746f2063757272656e74206f776e6560008201527f7200000000000000000000000000000000000000000000000000000000000000602082015250565b600061365b602183612e0a565b9150613666826135ff565b604082019050919050565b6000602082019050818103600083015261368a8161364e565b9050919050565b7f4552433732313a20617070726f76652063616c6c6572206973206e6f7420746f60008201527f6b656e206f776e6572206f7220617070726f76656420666f7220616c6c000000602082015250565b60006136ed603d83612e0a565b91506136f882613691565b604082019050919050565b6000602082019050818103600083015261371c816136e0565b9050919050565b7f4e487b7100000000000000000000000000000000000000000000000000000000600052601160045260246000fd5b600061375d82612eb1565b915061376883612eb1565b92508282039050818111156137805761377f613723565b5b92915050565b600061379182612eb1565b915061379c83612eb1565b92508282019050808211156137b4576137b3613723565b5b92915050565b7f4e487b7100000000000000000000000000000000000000000000000000000000600052603260045260246000fd5b60006137f482612eb1565b91507fffffffffffffffffffffffffffffffffffffffffffffffffffffffffffffffff820361382657613825613723565b5b600182019050919050565b7f4552433732313a2063616c6c6572206973206e6f7420746f6b656e206f776e6560008201527f72206f7220617070726f76656400000000000000000000000000000000000000602082015250565b600061388d602d83612e0a565b915061389882613831565b604082019050919050565b600060208201905081810360008301526138bc81613880565b9050919050565b7f4f6e6c79206974656d2073656c6c65722063616e20706572666f726d2074686960008201527f73206f7065726174696f6e000000000000000000000000000000000000000000602082015250565b600061391f602b83612e0a565b915061392a826138c3565b604082019050919050565b6000602082019050818103600083015261394e81613912565b9050919050565b7f4f6e6c792063616e63656c206974656d7320776869636820617265206e6f742060008201527f736f6c6420796574000000000000000000000000000000000000000000000000602082015250565b60006139b1602883612e0a565b91506139bc82613955565b604082019050919050565b600060208201905081810360008301526139e0816139a4565b9050919050565b7f4552433732313a20696e76616c696420746f6b656e2049440000000000000000600082015250565b6000613a1d601883612e0a565b9150613a28826139e7565b602082019050919050565b60006020820190508181036000830152613a4c81613a10565b9050919050565b7f4552433732313a2061646472657373207a65726f206973206e6f74206120766160008201527f6c6964206f776e65720000000000000000000000000000000000000000000000602082015250565b6000613aaf602983612e0a565b9150613aba82613a53565b604082019050919050565b60006020820190508181036000830152613ade81613aa2565b9050919050565b7f4f6e6c79206d61726b6574706c616365206f776e65722063616e20757064617460008201527f65206c697374696e672070726963650000000000000000000000000000000000602082015250565b6000613b41602f83612e0a565b9150613b4c82613ae5565b604082019050919050565b60006020820190508181036000830152613b7081613b34565b9050919050565b7f506c65617365207375626d6974207468652061736b696e67207072696365206960008201527f6e206f7264657220746f20636f6d706c65746520746865207075726368617365602082015250565b6000613bd3604083612e0a565b9150613bde82613b77565b604082019050919050565b60006020820190508181036000830152613c0281613bc6565b9050919050565b600081905092915050565b6000613c1f82612dff565b613c298185613c09565b9350613c39818560208601612e1b565b80840191505092915050565b6000613c518285613c14565b9150613c5d8284613c14565b91508190509392505050565b7f4f6e6c79206974656d206f776e65722063616e20706572666f726d207468697360008201527f206f7065726174696f6e00000000000000000000000000000000000000000000602082015250565b6000613cc5602a83612e0a565b9150613cd082613c69565b604082019050919050565b60006020820190508181036000830152613cf481613cb8565b9050919050565b7f5072696365206d75737420626520657175616c20746f206c697374696e67207060008201527f7269636500000000000000000000000000000000000000000000000000000000602082015250565b6000613d57602483612e0a565b9150613d6282613cfb565b604082019050919050565b60006020820190508181036000830152613d8681613d4a565b9050919050565b7f4552433732313a207472616e736665722066726f6d20696e636f72726563742060008201527f6f776e6572000000000000000000000000000000000000000000000000000000602082015250565b6000613de9602583612e0a565b9150613df482613d8d565b604082019050919050565b60006020820190508181036000830152613e1881613ddc565b9050919050565b7f4552433732313a207472616e7366657220746f20746865207a65726f2061646460008201527f7265737300000000000000000000000000000000000000000000000000000000602082015250565b6000613e7b602483612e0a565b9150613e8682613e1f565b604082019050919050565b60006020820190508181036000830152613eaa81613e6e565b9050919050565b7f4552433732313a206d696e7420746f20746865207a65726f2061646472657373600082015250565b6000613ee7602083612e0a565b9150613ef282613eb1565b602082019050919050565b60006020820190508181036000830152613f1681613eda565b9050919050565b7f4552433732313a20746f6b656e20616c7265616479206d696e74656400000000600082015250565b6000613f53601c83612e0a565b9150613f5e82613f1d565b602082019050919050565b60006020820190508181036000830152613f8281613f46565b9050919050565b7f45524337323155524953746f726167653a2055524920736574206f66206e6f6e60008201527f6578697374656e7420746f6b656e000000000000000000000000000000000000602082015250565b6000613fe5602e83612e0a565b9150613ff082613f89565b604082019050919050565b6000602082019050818103600083015261401481613fd8565b9050919050565b60008190508160005260206000209050919050565b60006020601f8301049050919050565b600082821b905092915050565b60006008830261407d7fffffffffffffffffffffffffffffffffffffffffffffffffffffffffffffffff82614040565b6140878683614040565b95508019841693508086168417925050509392505050565b6000819050919050565b60006140c46140bf6140ba84612eb1565b61409f565b612eb1565b9050919050565b6000819050919050565b6140de836140a9565b6140f26140ea826140cb565b84845461404d565b825550505050565b600090565b6141076140fa565b6141128184846140d5565b505050565b5b818110156141365761412b6000826140ff565b600181019050614118565b5050565b601f82111561417b5761414c8161401b565b61415584614030565b81016020851015614164578190505b61417861417085614030565b830182614117565b50505b505050565b600082821c905092915050565b600061419e60001984600802614180565b1980831691505092915050565b60006141b7838361418d565b9150826002028217905092915050565b6141d082612dff565b67ffffffffffffffff8111156141e9576141e8613208565b5b6141f382546135ce565b6141fe82828561413a565b600060209050601f831160018114614231576000841561421f578287015190505b61422985826141ab565b865550614291565b601f19841661423f8661401b565b60005b8281101561426757848901518255600182019150602085019450602081019050614242565b868310156142845784890151614280601f89168261418d565b8355505b6001600288020188555050505b505050505050565b7f5072696365206d7573742062652067726561746572207468616e207a65726f00600082015250565b60006142cf601f83612e0a565b91506142da82614299565b602082019050919050565b600060208201905081810360008301526142fe816142c2565b9050919050565b600060808201905061431a6000830187612f46565b6143276020830186612f46565b6143346040830185613154565b6143416060830184612dd5565b95945050505050565b7f4552433732313a20617070726f766520746f2063616c6c657200000000000000600082015250565b6000614380601983612e0a565b915061438b8261434a565b602082019050919050565b600060208201905081810360008301526143af81614373565b9050919050565b7f4552433732313a207472616e7366657220746f206e6f6e20455243373231526560008201527f63656976657220696d706c656d656e7465720000000000000000000000000000602082015250565b6000614412603283612e0a565b915061441d826143b6565b604082019050919050565b6000602082019050818103600083015261444181614405565b9050919050565b7f436f756e7465723a2064656372656d656e74206f766572666c6f770000000000600082015250565b600061447e601b83612e0a565b915061448982614448565b602082019050919050565b600060208201905081810360008301526144ad81614471565b9050919050565b600081519050919050565b600082825260208201905092915050565b60006144db826144b4565b6144e581856144bf565b93506144f5818560208601612e1b565b6144fe81612e45565b840191505092915050565b600060808201905061451e6000830187612f46565b61452b6020830186612f46565b6145386040830185613154565b818103606083015261454a81846144d0565b905095945050505050565b60008151905061456481612d70565b92915050565b6000602082840312156145805761457f612d3a565b5b600061458e84828501614555565b91505092915050565b7f4e487b7100000000000000000000000000000000000000000000000000000000600052601260045260246000fdfea26469706673582212203433e35baed947baeef49afe7c02b766bd808ece375a85822fa38c2dc5ffd7b964736f6c63430008120033",
  "linkReferences": {},
  "deployedLinkReferences": {}
}